:08000000803102288731FB2F3B
:100F0E00163021009700080021009E019B019C01D4
:100F1E009D01080070302100990098012200960171
:100F2E0008008731A527873187319127873187318F
:100F3E008727873187318B27873108002200900160
:100F4E008F018C018D018E010D3021009000BE307D
:100F5E008C00FF308D0055308E0055308F0055308F
:100F6E0023008F003F308D00053090003E308C0006
:100F7E00240090018D012100951722009D0108008B
:100F8E0087319827873122008E1022000C1490147E
:100F9E000C178E158F148F158E168E178F168F17A2
:100FAE000630F3001330F200AE30890BDC2FF20B5B
:100FBE00DC2FF30BDC2F22000C1090100C138E1173
:100FCE008F108F118E128E138F128F130630F30027
:100FDE001330F200AE30890BF22FF20BF22FF30B1F
:100FEE00F22FCC2F80310228F001F1012000873141
:020FFE00C72FFB
:020000040001F9
:04000E00E43FFF3E8E
:00000001FF
