:08000000803102288731E92F4D
:100B7E00053404341630210097000800FE001200E0
:100B8E001E00FE0BC62D003438302100990098014E
:100B9E002200960108008631B82685318531CB2595
:100BAE0085318531C125853108007003031DE02D87
:100BBE00E12DE42D22000F17E62D22000F13080061
:100BCE007003031DEB2DEC2DEF2D22000C15F12DD6
:100BDE0022000C1108007003031DF62DF72DFA2DBF
:100BEE0022008C15FC2D22008C1108007003031DB1
:100BFE00012E022E052E22008C17072E22008C139A
:100C0E0008007003031D0C2E0D2E102E22000E1444
:100C1E00122E22000E1008007003031D172E182E20
:100C2E001B2E22000F141D2E22000F100800700321
:100C3E00031D222E232E262E22000F15282E2200D3
:100C4E000F1108007003031D2D2E2E2E312E2200A3
:100C5E000E16332E22000E1208007003031D382EBE
:100C6E00392E3C2E22000E173E2E22000E130800A7
:100C7E007003031D432E442E472E22000F16492EBD
:100C8E0022000F1208007003031D4E2E4F2E522EFF
:100C9E0022009014542E2200901008007003031DA1
:100CAE00592E5A2E5D2E22000C145F2E22000C108F
:100CBE0008007003031D642E652E682E22000C178B
:100CCE006A2E22000C1308007003031D6F2E702E67
:100CDE00732E22008E15752E22008E1108007003C1
:100CEE00031D7A2E7B2E7E2E22008F14802E220044
:100CFE008F1008007003031D852E862E892E22006C
:100D0E008F158B2E22008F1108007003031D902E5D
:100D1E00912E942E22008E16962E22008E120800F0
:100D2E007003031D9B2E9C2E9F2E22008E17A12E2C
:100D3E0022008E1308007003031DA62EA72EAA2EC6
:100D4E0022008F16AC2E22008F1208007003031D96
:100D5E00B12EB22EB52E22008F17B72E22008F1372
:100D6E000800220090018F018C018D018E010D3043
:100D7E002100900032308C00FF308D008E018F01EB
:100D8E0023008F0129308D000530900012308C0029
:100D9E00240090018D012100951722009D0108006D
:100DAE00E7340534F2340534FD34053408340634A2
:100DBE00133406341E3406342934063434340634DF
:100DCE003F340634DC340534553406344A340634A4
:100DDE00603406346B34063476340634813406348B
:100DEE008C34063497340634A2340634AD340634CB
:100DFE008531D225863122008E100E1120000D195C
:100E0E00092F0A2F182F0A307C0203180F2F102FCC
:100E1E00182F0D1D132F142F102F0130F1007108F4
:100E2E00FC078D181B2F1C2F2A2F0A307B0203184C
:100E3E00212F222F2A2F8D1C252F262F222F0130D6
:100E4E00F1007108FB070D1A2D2F2E2F392F7C085C
:100E5E000319322F332F392F0D1E362F372F332FE5
:100E6E000130FC028C1A3C2F3D2F482F7B080319B2
:100E7E00412F422F482F8C1E452F462F422F0130D7
:100E8E00FB02F301F4015A2FF001F00A7335343EE0
:100E9E0086008701413F8A00403F0A0087310130BA
:100EAE00F3070030F43D7408803AF100803071028F
:100EBE00031D632F7C087302031C662F672F4B2FB5
:100ECE007C08F100F2017108F7007208F80078084A
:100EDE00803AF10080307102031D772F0A307702BD
:100EEE00031C7A2F7B2F7C2F972FF0017735343E02
:100EFE0086008701413F8A00403F0A00873101305A
:100F0E00F7070030F83D7808803AF1008030710222
:100F1E00031D932F0A307702031C962F972F7C2FD9
:100F2E00F501F601A92FF001F00A7535203E860075
:100F3E008701413F8A00403F0A0087310130F507A3
:100F4E000030F63D7608803AF10080307102031DC4
:100F5E00B22F7B087502031CB52FB62F9A2F7B0874
:100F6E00F100F2017108F9007208FA007A08803A6D
:100F7E00F10080307102031DC62F0A307902031C66
:100F8E00C92FCA2FCB2F052FF0017935203E8600B1
:100F9E008701413F8A00403F0A0087310130F9073F
:100FAE000030FA3D7A08803AF10080307102031D5C
:100FBE00E22F0A307902031CE52FE62FCB2F052FE7
:100FCE00803102288531BF258731FB008531C02550
:100FDE008731FC00D73084008630850020308600B3
:100FEE000030870028308531C525873120008631B5
:020FFE00FF2EC4
:020000040001F9
:04000E00E43FFF3E8E
:00000001FF
