:08000000803102288731F12F45
:100426001630210097000800FE0012001E00FE0B89
:10043600182A0034383021009900980122009601CC
:10044600080083310A23823182311D2282318231B2
:100456001322823108007003031D322A332A362AFA
:1004660022000F17382A22000F1308007003031DFD
:100476003D2A3E2A412A22000C15432A22000C114D
:1004860008007003031D482A492A4C2A22008C15AD
:100496004E2A22008C1108007003031D532A542A89
:1004A600572A22008C17592A22008C130800700341
:1004B600031D5E2A5F2A622A22000E14642A220085
:1004C6000E1008007003031D692A6A2A6D2A22008D
:1004D6000F146F2A22000F1008007003031D742AE0
:1004E600752A782A22000F157A2A22000F11080091
:1004F6007003031D7F2A802A832A22000E16852A6E
:1005060022000E1208007003031D8A2A8B2A8E2AE7
:1005160022000E17902A22000E1308007003031DF6
:10052600952A962A992A22000F169B2A22000F1234
:1005360008007003031DA02AA12AA42A22009014F1
:10054600A62A2200901008007003031DAB2AAC2ACD
:10055600AF2A22000C14B12A22000C1008007003E6
:10056600031DB62AB72ABA2A22000C17BC2A220073
:100576000C1308007003031DC12AC22AC52A2200D3
:100586008E15C72A22008E1108007003031DCC2A7F
:10059600CD2AD02A22008F14D22A22008F100800DA
:1005A6007003031DD72AD82ADB2A22008F15DD2ADD
:1005B60022008F1108007003031DE22AE32AE62AAF
:1005C60022008E16E82A22008E1208007003031DF0
:1005D600ED2AEE2AF12A22008E17F32A22008E1324
:1005E60008007003031DF82AF92AFC2A22008F1638
:1005F600FE2A22008F1208007003031D032B042B12
:10060600072B22008F17092B22008F1308002200C8
:1006160090018F018C018D018E010930210090001F
:1006260032308C00FF308D008E018F0123008F0148
:1006360001308D000530900002308C0024009001BE
:100646008D012100951722009D01080039340234DE
:10065600443402344F3402345A340234653402349A
:10066600703402347B3402348634023491340234DA
:100676002E340234A73402349C340234B2340234A9
:10068600BD340234C8340234D3340234DE34023486
:10069600E9340234F4340234FF3402348231242241
:1006A6008331B4308600003087002030840000306B
:1006B60085001430F10016001A00F10B5E2BA030F5
:1006C6008600003087003430840000308500143006
:1006D600F10016001A00F10B6C2B2000E401E40A6D
:1006E6000530F1007108E9000430F1007108EA00F4
:1006F6000530F1007108EB000430F1007108EC00E0
:100706000530F1007108E5000430F1007108E600DB
:100716000530F1007108E7000430F1007108E800C7
:1007260022008E100E1120000C1A9A2B9B2B2E2DB8
:100736001130F1003A30890B9E2BF10B9E2B0032C3
:1007460020000C1AA72BA82B2E2D03102200101DFB
:1007560003140318AF2BB22B22001015B42B220062
:10076600101120006403031DB92BBA2B002DE401E0
:10077600D801D901F00120005835203E86008701B6
:10078600413F8A00403F0A008331F001200058357E
:10079600343E86008701413F8A00403F0A0083318C
:1007A60001302000D8070030D93D5908803AF100C1
:1007B60080307102031DE12B0A305802031CE42B22
:1007C600E52BBD2B2000DA01DB015B08803AF10046
:1007D60080307102031DF12B0A305A02031CF42BE0
:1007E600F52BF62B1C2CF001F00A20005A35203E82
:1007F60086008701413F8A00403F0A008431F001AC
:10080600F00A20005A35343E86008701413F8A00AF
:10081600403F0A0084310930F1001C30890B112C4D
:10082600F10B112C003201302000DA070030DB3DDD
:10083600E82B09302000DC000030DD00DD1F242C11
:10084600252C262C492CF0015C35203E860087019C
:10085600413F8A00403F0A008431F00120005C35A8
:10086600343E86008701413F8A00403F0A008431BA
:100876001130F1003A30890B3E2CF10B3E2C003240
:10088600FF302000DC07FF30DD3D212CD001D101F7
:10089600712CF001F00A20005035203E86008701B9
:1008A600413F8A00403F0A008431F001F00A2000EF
:1008B6005035343E86008701413F8A00403F0A009A
:1008C60084310930F1001C30890B672CF10B672C41
:1008D600003201302000D0070030D13D69086A029D
:1008E600031C762C772C7F2C6908F100F201710825
:1008F600C8007208C900862C6A08F100F201710866
:10090600C8007208C9005108803AF1004908803AC7
:100916007102031D902C48085002031C932C942C42
:100926004C2C200069086A02031C9A2C9B2CA32CD1
:100936006908F100F2017108D6007208D700DC2CB4
:100946006A08F100F2017108D6007208D700DC2CA3
:10095600200069086A020318B12CB22CBE2CF001E3
:10096600F00A5635203E86008701413F8A00403F07
:100976000A008431CF2C6A0869020318C32CC42CE0
:100986002E2DF001F00A5635343E86008701413F90
:100996008A00403F0A0084310930F1001C30890B7F
:1009A600D22CF10BD22C003201302000D6070030B9
:1009B600D73D6A086902031CE12CE22CEA2C69087F
:1009C600F100F2017108CA007208CB00F12C6A0826
:1009D600F100F2017108CA007208CB005708803A8C
:1009E600F1004B08803A7102031DFB2C4A0856029F
:1009F600031CFE2CFF2CAB2C2E2DE401E40ADE0199
:100A0600DF015F08803AF10080307102031D0D2D71
:100A16000A305E02031C102D112D122D2E2DF00111
:100A260020005E35203E86008701413F8A00403F18
:100A36000A008531F00120005E35343E86008701CC
:100A4600413F8A00403F0A00853101302000DE0721
:100A56000030DF3D042D20000D19322D332D892D58
:100A66006403031D372D382D5E2D09306B020318E4
:100A76003D2D3E2D5E2D1130F1003A30890B412D72
:100A8600F10B412D003220000D1D4A2D4B2D512D0D
:100A96000130F10071082000EB07892D0D19542D46
:100AA600552D892D2130F1007630890B582DF10B0B
:100AB600582D00324B2D6408031D622D632D892DA0
:100AC6000A3069020318682D692D892D1130F1004D
:100AD6003A30890B6C2DF10B6C2D003220000D1D68
:100AE600752D762D7C2D0130F10071082000E90767
:100AF600892D0D197F2D802D892D2130F10076301D
:100B0600890B832DF10B832D0032762D8D188C2DBC
:100B16008D2DDA2D1130F1003A30890B902DF10B25
:100B2600902D003220006403031D9A2D9B2DB82DB5
:100B360009306C020318A02DA12DB82D8D1CA42DF3
:100B4600A52DAB2D0130F10071082000EC07DA2D40
:100B56008D18AE2DAF2DDA2D2130F1007630890BB0
:100B6600B22DF10BB22D0032A52D6408031DBC2D4C
:100B7600BD2DDA2D0A306A020318C22DC32DDA2DD7
:100B86008D1CC62DC72DCD2D0130F100710820001A
:100B9600EA07DA2D8D18D02DD12DDA2D2130F1006E
:100BA6007630890BD42DF10BD42D0032C72D0D1ABA
:100BB600DD2DDE2D252E1130F1003A30890BE12D89
:100BC600F10BE12D003220006403031DEB2DEC2D0B
:100BD600062E6B080319F02DF12D062E0D1EF42D91
:100BE600F52DF92D01302000EB02252E0D1AFC2DD6
:100BF600FD2D252E2130F1007630890B002EF10BCC
:100C0600002E0032F52D6408031D0A2E0B2E252E0C
:100C1600690803190F2E102E252E0D1E132E142EC5
:100C2600182E01302000E902252E0D1A1B2E1C2E2F
:100C3600252E2130F1007630890B1F2EF10B1F2E49
:100C46000032142E8C1A282E292E702E1130F10007
:100C56003A30890B2C2EF10B2C2E00322000640327
:100C6600031D362E372E512E6C0803193B2E3C2EB3
:100C7600512E8C1E3F2E402E442E01302000EC02B9
:100C8600702E8C1A472E482E702E2130F1007630A9
:100C9600890B4B2EF10B4B2E0032402E6408031DA0
:100CA600552E562E702E6A0803195A2E5B2E702E5C
:100CB6008C1E5E2E5F2E632E01302000EA02702EFF
:100CC6008C1A662E672E702E2130F1007630890B35
:100CD6006A2EF10B6A2E00325F2E8D1A732E742E39
:100CE600962E4130F100EE30890B772EF10B772EE0
:100CF600003220008D1E802E812E8A2E6708F1007C
:100D06007108EB006808F1007108EC00962E8D1A48
:100D16008D2E8E2E962E6B08F1007108E7006C085A
:100D2600F1007108E8008D19992E9A2EDF2F4130B7
:100D3600F100EE30890B9D2EF10B9D2E0032200026
:100D46008D1DA62EA72EB02E6508F1007108E900AC
:100D56006608F1007108EA00DF2F8D19B32EB42E54
:100D6600BD2E6908F1007108E5006A08F1007108F6
:100D7600E600DF2FDF2FCC01CD01D22EF001F00AE5
:100D860020004C35203E86008701413F8A00403FC7
:100D96000A00863101302000CC070030CD3D4D08D9
:100DA600803AF10080307102031DDB2E69084C0287
:100DB600031CDE2EDF2EC12E20006908F100F20191
:100DC6007108D2007208D3005308803AF1008030CF
:100DD6007102031DF02E0A305202031CF32EF42E6C
:100DE600F52E122FF00120005235203E8600870195
:100DF600413F8A00403F0A00863101302000D20779
:100E06000030D33D5308803AF10080307102031D53
:100E16000E2F0A305202031C112F122FF52E20001E
:100E2600CE01CF01272FF001F00A20004E35343EC7
:100E360086008701413F8A00403F0A008731013022
:100E46002000CE070030CF3D4F08803AF1008030B9
:100E56007102031D302F6A084E02031C332F342FF4
:100E6600162F20006A08F100F2017108D4007208FA
:100E7600D5005508803AF10080307102031D452FD8
:100E86000A305402031C482F492F4A2F962BF00193
:100E960020005435343E86008701413F8A00403F9A
:100EA6000A00873101302000D4070030D53D5508AF
:100EB600803AF10080307102031D632F0A3054021C
:100EC600031C662F672F4A2F962BF001F00A6B350D
:100ED600203E86008701413F8A00403F0A00873155
:100EE600F001F00A20006C35343E86008701413F50
:100EF6008A00403F0A0087312000E001E1016108D5
:100F0600803AF10080307102031D8B2F0A30600297
:100F1600031C8E2F8F2F902FAF2F20006B08F10010
:100F2600F20161087206031D9A2F60087106031DFF
:100F36009D2F9E2F9F2FA92FF0016035203E860002
:100F46008701413F8A00403F0A0087310130200077
:100F5600E0070030E13D822F2000E201E301630853
:100F6600803AF10080307102031DBB2F0A30620205
:100F7600031CBE2FBF2FC02F962B20006C08F1003C
:100F8600F20163087206031DCA2F62087106031D6B
:100F9600CD2FCE2FCF2FD92FF0016235343E8600CC
:100FA6008701413F8A00403F0A0087310130200017
:100FB600E2070030E33DB22F6408F100F201720847
:100FC600003A0319E72F962B7108003A0319BE2E33
:100FD600013A0319682F962B8031022829308400A4
:100FE60083308500A03086000030870028308231AB
:0A0FF6001722873120008331512BB0
:020000040001F9
:04000E00E43FFF3E8E
:00000001FF
