:08000000803102288731E92F4D
:1006BC00053404341630210097000800FE001200A7
:1006CC001E00FE0B652B0034383021009900980178
:1006DC0022009601080084315724833183316A2328
:1006EC00833183316023833108007003031D7F2B1A
:1006FC00802B832B22000F17852B22000F13080051
:10070C007003031D8A2B8B2B8E2B22000C15902B28
:10071C0022000C1108007003031D952B962B992BAE
:10072C0022008C159B2B22008C1108007003031DDA
:10073C00A02BA12BA42B22008C17A62B22008C13F0
:10074C0008007003031DAB2BAC2BAF2B22000E1437
:10075C00B12B22000E1008007003031DB62BB72B13
:10076C00BA2B22000F14BC2B22000F1008007003B0
:10077C00031DC12BC22BC52B22000F15C72B22002A
:10078C000F1108007003031DCC2BCD2BD02B220096
:10079C000E16D22B22000E1208007003031DD72B4D
:1007AC00D82BDB2B22000E17DD2B22000E1308009A
:1007BC007003031DE22BE32BE62B22000F16E82B14
:1007CC0022000F1208007003031DED2BEE2BF12BF2
:1007DC0022009014F32B2200901008007003031DCC
:1007EC00F82BF92BFC2B22000C14FE2B22000C10E6
:1007FC0008007003031D032C042C072C22000C177B
:10080C00092C22000C1308007003031D0E2C0F2C56
:10081C00122C22008E15142C22008E11080070034D
:10082C00031D192C1A2C1D2C22008F141F2C220096
:10083C008F1008007003031D242C252C282C22005B
:10084C008F152A2C22008F1108007003031D2F2CEA
:10085C00302C332C22008E16352C22008E120800E0
:10086C007003031D3A2C3B2C3E2C22008E17402C7F
:10087C0022008E1308007003031D452C462C492CB6
:10088C0022008F164B2C22008F1208007003031DC0
:10089C00502C512C542C22008F17562C22008F13C5
:1008AC000800220090018F018C018D018E0109300E
:1008BC002100900032308C00FF308D008E018F01B2
:1008CC0023008F0101308D000530900002308C0028
:1008DC00240090018D012100951722009D01080034
:1008EC0086340334913403349C340334A7340334F6
:1008FC00B2340334BD340334C8340334D334033436
:10090C00DE3403347B340334F4340334E9340334F9
:10091C00FF3403340A3404341534043420340434DE
:10092C002B34043436340434413404344C3404341D
:10093C0001348331712384310530F10071082000BA
:10094C00E3000430F1007108E4000530F100710897
:10095C00E1000430F1007108E20022008E100E114B
:10096C0020000C1ABA2CBB2C4A2E1130F1003A3054
:10097C00890BBE2CF10BBE2C003220000C1AC72C9C
:10098C00C82C4A2E03102200101D03140318CF2C60
:10099C00D22C22001015D42C220010112000480358
:1009AC00031DD92CDA2C1C2EC801D901DA01F00157
:1009BC0020005935343E86008701413F8A00403F74
:1009CC000A008431F00120005935203E8600870151
:1009DC00413F8A00403F0A00843101302000D90792
:1009EC000030DA3D5A08803AF10080307102031D64
:1009FC00012D0A305902031C042D052DDD2C20007D
:100A0C00DB01DC01F001F00A20005B35343E86008E
:100A1C008701413F8A00403F0A008531F001F00A0E
:100A2C0020005B35203E86008701413F8A00403F15
:100A3C000A0085310930F1001C30890B232DF10B94
:100A4C00232D003201302000DB070030DC3D5C0838
:100A5C00803AF10080307102031D362D0A305B02A2
:100A6C00031C392D3A2D082D09302000DD000030F3
:100A7C00DE00F0015D35343E86008701413F8A007F
:100A8C00403F0A008531F00120005D35203E860094
:100A9C008701413F8A00403F0A0085311130F10047
:100AAC003A30890B572DF10B572D0032FF302000B7
:100ABC00DD07FF30DE3DDE1F642D652D3F2DD1019E
:100ACC00D2018D2DF001F00A20005135343E860004
:100ADC008701413F8A00403F0A008531F001F00A4E
:100AEC0020005135203E86008701413F8A00403F5F
:100AFC000A0085310930F1001C30890B832DF10B74
:100B0C00832D003201302000D1070030D23D630824
:100B1C006402031C922D932D9B2D6308F100F201AE
:100B2C007108C9007208CA00A22D6408F100F20114
:100B3C007108C9007208CA005208803AF1004A08CC
:100B4C00803A7102031DAC2D49085102031CAF2DD4
:100B5C00B02D682D200063086402031CB62DB72D40
:100B6C00BF2D6308F100F2017108D7007208D8009C
:100B7C00F82D6408F100F2017108D7007208D80052
:100B8C00F82D2000630864020318CD2DCE2DDA2D2C
:100B9C00F001F00A5735343E86008701413F8A0048
:100BAC00403F0A008531EB2D640863020318DF2DEA
:100BBC00E02D4A2EF001F00A5735203E86008701C1
:100BCC00413F8A00403F0A0085310930F1001C305A
:100BDC00890BEE2DF10BEE2D003201302000D707E2
:100BEC000030D83D64086302031CFD2DFE2D062E3B
:100BFC006308F100F2017108CB007208CC000D2ED5
:100C0C006408F100F2017108CB007208CC0058089E
:100C1C00803AF1004C08803A7102031D172E4B08E4
:100C2C005702031C1A2E1B2EC72D4A2EC801C80AA8
:100C3C00DF01E0016008803AF10080307102031D91
:100C4C00292E0A305F02031C2C2E2D2E2E2E4A2EFE
:100C5C00F00120005F35343E86008701413F8A0059
:100C6C00403F0A008631F00120005F35203E8600AF
:100C7C008701413F8A00403F0A0086310130200045
:100C8C00DF070030E03D202E20000D194E2E4F2E98
:100C9C00752E0A3063020318542E552E752E113002
:100CAC00F1003A30890B582EF10B582E00322000EF
:100CBC000D1D612E622E682E0130F100710820008E
:100CCC00E307752E0D196B2E6C2E752E4130F1002D
:100CDC00EE30890B6F2EF10B6F2E0032622E8D18B9
:100CEC00782E792E9F2E0A30640203187E2E7F2ECA
:100CFC009F2E1130F1003A30890B822EF10B822E8F
:100D0C00003220008D1C8B2E8C2E922E0130F10087
:100D1C0071082000E4079F2E8D18952E962E9F2E7D
:100D2C004130F100EE30890B992EF10B992E0032E7
:100D3C008C2E0D1AA22EA32EC62E63080319A72ED5
:100D4C00A82EC62E1130F1003A30890BAB2EF10BC8
:100D5C00AB2E003220000D1EB42EB52EB92E013054
:100D6C002000E302C62E0D1ABC2EBD2EC62E41301D
:100D7C00F100EE30890BC02EF10BC02E0032B52ED7
:100D8C008C1AC92ECA2EED2E64080319CE2ECF2E26
:100D9C00ED2E1130F1003A30890BD22EF10BD22E00
:100DAC00003220008C1EDB2EDC2EE02E01302000C9
:100DBC00E402ED2E8C1AE32EE42EED2E4130F100E0
:100DCC00EE30890BE72EF10BE72E0032DC2E8D195D
:100DDC00F02EF12ED72F4130F100EE30890BF42E8E
:100DEC00F10BF42E003220008D1DFD2EFE2E072F50
:100DFC006108F1007108E3006208F1007108E40079
:100E0C00D72F8D190A2F0B2F142F6308F10071089F
:100E1C00E1006408F1007108E200D72FD72FCD0153
:100E2C00CE01292FF001F00A20004D35343E86000A
:100E3C008701413F8A00403F0A0087310130200082
:100E4C00CD070030CE3D4E08803AF1008030710263
:100E5C00031D322F63084D02031C352F362F182F1C
:100E6C0020006308F100F2017108D3007208D4006D
:100E7C005408803AF10080307102031D472F0A306C
:100E8C005302031C4A2F4B2F4C2F692FF0012000CB
:100E9C005335343E86008701413F8A00403F0A00AB
:100EAC00873101302000D3070030D43D5408803AFC
:100EBC00F10080307102031D652F0A305302031CB0
:100ECC00682F692F4C2F2000CF01D0017E2FF0010D
:100EDC00F00A20004F35203E86008701413F8A00F2
:100EEC00403F0A00873101302000CF070030D03D51
:100EFC005008803AF10080307102031D872F64087E
:100F0C004F02031C8A2F8B2F6D2F20006408F100D9
:100F1C00F2017108D5007208D6005608803AF1002B
:100F2C0080307102031D9C2F0A305502031C9F2F29
:100F3C00A02FA12FB62CF00120005535203E8600A5
:100F4C008701413F8A00403F0A0087310130200071
:100F5C00D5070030D63D5608803AF100803071023A
:100F6C00031DBA2F0A305502031CBD2FBE2FA12F13
:100F7C00B62CF001F00A6135323E86008701413F04
:100F8C008A00403F0A008731F001F00A20006235E8
:100F9C001E3E86008701413F8A00403F0A00873190
:100FAC00B62C4808F100F2017208003A0319DF2F41
:100FBC00B62C7108003A0319152F013A0319BF2FEB
:100FCC00B62C8031022883315E238731F3008331C4
:100FDC005F238731F4007630840084308500203024
:100FEC00860000308700293083316423873120004C
:040FFC0084319F2C71
:020000040001F9
:04000E00E43FFF3E8E
:00000001FF
