:08000000803102288731E92F4D
:100A0400053404341630210097000800FE0012005B
:100A14001E00FE0B092D0034383021009900980186
:100A24002200960108008531FB25853185310E258C
:100A3400853185310425853108007003031D232D7C
:100A4400242D272D22000F17292D22000F13080013
:100A54007003031D2E2D2F2D322D22000C15342D45
:100A640022000C1108007003031D392D3A2D3D2D71
:100A740022008C153F2D22008C1108007003031DE9
:100A8400442D452D482D22008C174A2D22008C130D
:100A940008007003031D4F2D502D532D22000E14FA
:100AA400552D22000E1008007003031D5A2D5B2DD6
:100AB4005E2D22000F14602D22000F100800700319
:100AC400031D652D662D692D22000F156B2D220047
:100AD4000F1108007003031D702D712D742D220059
:100AE4000E16762D22000E1208007003031D7B2DB6
:100AF4007C2D7F2D22000E17812D22000E1308005D
:100B04007003031D862D872D8A2D22000F168C2D30
:100B140022000F1208007003031D912D922D952DB4
:100B240022009014972D2200901008007003031DDA
:100B34009C2D9D2DA02D22000C14A22D22000C1002
:100B440008007003031DA72DA82DAB2D22000C1740
:100B5400AD2D22000C1308007003031DB22DB32D1C
:100B6400B62D22008E15B82D22008E1108007003B8
:100B7400031DBD2DBE2DC12D22008F14C32D2200B7
:100B84008F1008007003031DC82DC92DCC2D220021
:100B94008F15CE2D22008F1108007003031DD32D55
:100BA400D42DD72D22008E16D92D22008E120800A6
:100BB4007003031DDE2DDF2DE22D22008E17E42DA0
:100BC40022008E1308007003031DE92DEA2DED2D7C
:100BD40022008F16EF2D22008F1208007003031DD0
:100BE400F42DF52DF82D22008F17FA2D22008F13E6
:100BF4000800220090018F018C018D018E010930C3
:100C04002100900032308C00FF308D008E018F0166
:100C140023008F0101308D000530900002308C00DC
:100C2400240090018D012100951722009D010800E8
:100C34002A34053435340534403405344B34053412
:100C440056340534613405346C3405347734053452
:100C5400823405341F340534983405348D34053416
:100C6400A3340534AE340534B9340534C4340534FE
:100C7400CF340534DA340534E5340534F03405343E
:100C840001348531152586310530F10071082000C5
:100C9400D3000430F1007108D4000530F10071086C
:100CA400D1000430F1007108D20022008E100E1120
:100CB40020000C1A5E2E5F2E752E1130F1003A3092
:100CC400890B622EF10B622E003220000C1A6B2E5F
:100CD4006C2E752E4803031D702E712E732EC801C1
:100CE400752EC801C80A0D19782E792E9F2E0A3048
:100CF400530203187E2E7F2E9F2E1130F1003A30BE
:100D0400890B822EF10B822E003220000D1D8B2EBA
:100D14008C2E922E0130F10071082000D3079F2EF3
:100D24000D19952E962E9F2E4130F100EE30890B31
:100D3400992EF10B992E00328C2E8D18A22EA32EF3
:100D4400C92E0A3054020318A82EA92EC92E113018
:100D5400F1003A30890BAC2EF10BAC2E003220009E
:100D64008D1CB52EB62EBC2E0130F100710820006A
:100D7400D407C92E8D18BF2EC02EC92E4130F100C4
:100D8400EE30890BC32EF10BC32E0032B62E0D1A92
:100D9400CC2ECD2EF02E53080319D12ED22EF02EA8
:100DA4001130F1003A30890BD52EF10BD52E0032DB
:100DB40020000D1EDE2EDF2EE32E01302000D30294
:100DC400F02E0D1AE62EE72EF02E4130F100EE3013
:100DD400890BEA2EF10BEA2E0032DF2E8C1AF32E49
:100DE400F42E172F54080319F82EF92E172F11304B
:100DF400F1003A30890BFC2EF10BFC2E003220005E
:100E04008C1E052F062F0A2F01302000D402172F25
:100E14008C1A0D2F0E2F172F4130F100EE30890B55
:100E2400112FF10B112F0032062F8D191A2F1B2FA2
:100E34003D2F4130F100EE30890B1E2FF10B1E2F98
:100E4400003220008D1D272F282F312F5108F1004B
:100E54007108D3005208F1007108D4003D2F8D1998
:100E6400342F352F3D2F5308F1007108D100540859
:100E7400F1007108D200C901CA01512FF001F00A32
:100E840020004935343E86008701413F8A00403FB7
:100E94000A00873101302000C9070030CA3D4A08E2
:100EA400803AF10080307102031D5A2F5308490221
:100EB400031C5D2F5E2F402F20005308F100F20128
:100EC4007108CD007208CE004E08803AF1008030DF
:100ED4007102031D6F2F0A304D02031C722F732FF2
:100EE400742F912FF00120004D35343E8600870188
:100EF400413F8A00403F0A00873101302000CD077E
:100F04000030CE3D4E08803AF10080307102031D5E
:100F14008D2F0A304D02031C902F912F742F200027
:100F2400CB01CC01A62FF001F00A20004B35203E66
:100F340086008701413F8A00403F0A008731013023
:100F44002000CB070030CC3D4C08803AF1008030C3
:100F54007102031DAF2F54084B02031CB22FB32F91
:100F6400952F20005408F100F2017108CF00720897
:100F7400D0005008803AF10080307102031DC42F64
:100F84000A304F02031CC72FC82FC92F5A2EF00155
:100F940020004F35203E86008701413F8A00403FB4
:100FA4000A00873101302000CF070030D03D5008BF
:100FB400803AF10080307102031DE22F0A304F02A3
:100FC400031CE52FE62FC92F5A2E803102288531C4
:100FD40002258731F300853103258731F4001A3067
:100FE4008400863085002030860000308700293058
:0C0FF40085310825873120008631432E0E
:020000040001F9
:04000E00E43FFF3E8E
:00000001FF
