:08000000803102288731F12F45
:100C98001630210097000800FE0012001E00FE0B0F
:100CA800512E003438302100990098012200960115
:100CB80008008731432786318631562686318631AA
:100CC8004C26863108007003031D6B2E6C2E6F2E88
:100CD80022000F17712E22000F1308007003031D46
:100CE800762E772E7A2E22000C157C2E22000C11DF
:100CF80008007003031D812E822E852E22008C157C
:100D0800872E22008C1108007003031D8C2E8D2E57
:100D1800902E22008C17922E22008C13080070034C
:100D2800031D972E982E9B2E22000E149D2E220016
:100D38000E1008007003031DA22EA32EA62E22005B
:100D48000F14A82E22000F1008007003031DAD2EEB
:100D5800AE2EB12E22000F15B32E22000F1108005F
:100D68007003031DB82EB92EBC2E22000E16BE2EFF
:100D780022000E1208007003031DC32EC42EC72EB6
:100D880022000E17C92E22000E1308007003031D3F
:100D9800CE2ECF2ED22E22000F16D42E22000F12C6
:100DA80008007003031DD92EDA2EDD2E22009014C0
:100DB800DF2E2200901008007003031DE42EE52E9C
:100DC800E82E22000C14EA2E22000C1008007003F2
:100DD800031DEF2EF02EF32E22000C17F52E220005
:100DE8000C1308007003031DFA2EFB2EFE2E2200A2
:100DF8008E15002F22008E1108007003031D052F89
:100E0800062F092F22008F140B2F22008F100800A5
:100E18007003031D102F112F142F22008F15162F6A
:100E280022008F1108007003031D1B2F1C2F1F2F7A
:100E380022008E16212F22008E1208007003031D37
:100E4800262F272F2A2F22008E172C2F22008E13B1
:100E580008007003031D312F322F352F22008F1603
:100E6800372F22008F1208007003031D3C2F3D2FDF
:100E7800402F22008F17422F22008F1308002200D4
:100E880090018F018C018D018E010D3021009000A1
:100E980032308C00FF308D008E018F0123008F01CE
:100EA8003F308D000530900032308C0024009001D6
:100EB8008D012100951722009D0108007234063427
:100EC8007D34063488340634933406349E3406342C
:100ED800A9340634B4340634BF340634CA3406346C
:100EE80067340634E0340634D5340634EB3406343B
:100EF800F6340634013407340C3407341734073415
:100F0800223407342D3407343834073486315D26CB
:100F1800873122008E100E11F201F301F001F00A60
:100F28007235343E86008701413F8A00403F0A00FF
:100F38008731F001F00A7235203E86008701413F73
:100F48008A00403F0A0087310130F2070030F33D44
:100F58007308803AF10080307102031DB52F0A3002
:100F68007202031CB82FB92F922F5230F1002A3089
:100F7800890BBC2FF10BBC2FF401F501F00174357E
:100F8800343E86008701413F8A00403F0A0087318E
:100F9800F0017435203E86008701413F8A00403FBA
:100FA8000A0087310130F4070030F53D7508803AB2
:100FB800F10080307102031DE32F0A307402031C14
:100FC800E62FE72FC22F5230F1002A30890BEA2F83
:100FD800F10BEA2F902F803102286230840087308D
:100FE8008500203086000030870028308631502662
:080FF8008731200087318A2FA8
:020000040001F9
:04000E00E43FFF3E8E
:00000001FF
